{
  "contractName": "Marketplace",
  "abi": [
    {
      "inputs": [],
      "stateMutability": "nonpayable",
      "type": "constructor"
    },
    {
      "inputs": [],
      "name": "itemID",
      "outputs": [
        {
          "internalType": "uint256",
          "name": "",
          "type": "uint256"
        }
      ],
      "stateMutability": "view",
      "type": "function",
      "constant": true
    },
    {
      "inputs": [],
      "name": "getCommission",
      "outputs": [
        {
          "internalType": "uint256",
          "name": "",
          "type": "uint256"
        }
      ],
      "stateMutability": "view",
      "type": "function",
      "constant": true
    },
    {
      "inputs": [
        {
          "internalType": "address",
          "name": "itemContract",
          "type": "address"
        },
        {
          "internalType": "uint256",
          "name": "tokenId",
          "type": "uint256"
        }
      ],
      "name": "createItem",
      "outputs": [],
      "stateMutability": "payable",
      "type": "function",
      "payable": true
    },
    {
      "inputs": [
        {
          "internalType": "uint256",
          "name": "_itemId",
          "type": "uint256"
        },
        {
          "internalType": "uint256",
          "name": "price",
          "type": "uint256"
        }
      ],
      "name": "listItem",
      "outputs": [],
      "stateMutability": "nonpayable",
      "type": "function"
    },
    {
      "inputs": [
        {
          "internalType": "address",
          "name": "itemContract",
          "type": "address"
        },
        {
          "internalType": "uint256",
          "name": "_itemId",
          "type": "uint256"
        }
      ],
      "name": "sellItem",
      "outputs": [],
      "stateMutability": "payable",
      "type": "function",
      "payable": true
    },
    {
      "inputs": [],
      "name": "getMarketItems",
      "outputs": [
        {
          "internalType": "uint256[]",
          "name": "",
          "type": "uint256[]"
        },
        {
          "internalType": "address[]",
          "name": "",
          "type": "address[]"
        },
        {
          "internalType": "uint256[]",
          "name": "",
          "type": "uint256[]"
        },
        {
          "internalType": "address payable[]",
          "name": "",
          "type": "address[]"
        },
        {
          "internalType": "address payable[]",
          "name": "",
          "type": "address[]"
        },
        {
          "internalType": "uint256[]",
          "name": "",
          "type": "uint256[]"
        },
        {
          "internalType": "bool[]",
          "name": "",
          "type": "bool[]"
        }
      ],
      "stateMutability": "view",
      "type": "function",
      "constant": true
    },
    {
      "inputs": [],
      "name": "getBoughtItems",
      "outputs": [
        {
          "internalType": "uint256[]",
          "name": "",
          "type": "uint256[]"
        },
        {
          "internalType": "address[]",
          "name": "",
          "type": "address[]"
        },
        {
          "internalType": "uint256[]",
          "name": "",
          "type": "uint256[]"
        },
        {
          "internalType": "address payable[]",
          "name": "",
          "type": "address[]"
        },
        {
          "internalType": "address payable[]",
          "name": "",
          "type": "address[]"
        },
        {
          "internalType": "uint256[]",
          "name": "",
          "type": "uint256[]"
        },
        {
          "internalType": "bool[]",
          "name": "",
          "type": "bool[]"
        }
      ],
      "stateMutability": "view",
      "type": "function",
      "constant": true
    },
    {
      "inputs": [],
      "name": "getListedItems",
      "outputs": [
        {
          "internalType": "uint256[]",
          "name": "",
          "type": "uint256[]"
        },
        {
          "internalType": "address[]",
          "name": "",
          "type": "address[]"
        },
        {
          "internalType": "uint256[]",
          "name": "",
          "type": "uint256[]"
        },
        {
          "internalType": "address payable[]",
          "name": "",
          "type": "address[]"
        },
        {
          "internalType": "address payable[]",
          "name": "",
          "type": "address[]"
        },
        {
          "internalType": "uint256[]",
          "name": "",
          "type": "uint256[]"
        },
        {
          "internalType": "bool[]",
          "name": "",
          "type": "bool[]"
        }
      ],
      "stateMutability": "view",
      "type": "function",
      "constant": true
    },
    {
      "inputs": [],
      "name": "getCreatedItems",
      "outputs": [
        {
          "internalType": "uint256[]",
          "name": "",
          "type": "uint256[]"
        },
        {
          "internalType": "address[]",
          "name": "",
          "type": "address[]"
        },
        {
          "internalType": "uint256[]",
          "name": "",
          "type": "uint256[]"
        },
        {
          "internalType": "address payable[]",
          "name": "",
          "type": "address[]"
        },
        {
          "internalType": "address payable[]",
          "name": "",
          "type": "address[]"
        },
        {
          "internalType": "uint256[]",
          "name": "",
          "type": "uint256[]"
        },
        {
          "internalType": "bool[]",
          "name": "",
          "type": "bool[]"
        }
      ],
      "stateMutability": "view",
      "type": "function",
      "constant": true
    }
  ],
  "bytecode": "0x608060405234801561001057600080fd5b5033600160006101000a81548173ffffffffffffffffffffffffffffffffffffffff021916908373ffffffffffffffffffffffffffffffffffffffff1602179055506706f05b59d3b2000060028190555060016000819055506136b1806100786000396000f3fe6080604052600436106100865760003560e01c806382750d531161005957806382750d5314610134578063883efa67146101505780638edfa6cb14610179578063caf50690146101aa578063e65d6b49146101db57610086565b8063096c5e1a1461008b57806323a2ba52146100a757806329aa3a42146100d857806343cdef6014610109575b600080fd5b6100a560048036038101906100a09190612c65565b610206565b005b3480156100b357600080fd5b506100bc61059f565b6040516100cf979695949392919061306d565b60405180910390f35b3480156100e457600080fd5b506100ed610e3d565b604051610100979695949392919061306d565b60405180910390f35b34801561011557600080fd5b5061011e61162f565b60405161012b919061320d565b60405180910390f35b61014e60048036038101906101499190612c65565b611635565b005b34801561015c57600080fd5b5061017760048036038101906101729190612ca1565b611933565b005b34801561018557600080fd5b5061018e611afe565b6040516101a1979695949392919061306d565b60405180910390f35b3480156101b657600080fd5b506101bf612355565b6040516101d2979695949392919061306d565b60405180910390f35b3480156101e757600080fd5b506101f0612bf3565b6040516101fd919061320d565b60405180910390f35b80600060036000838152602001908152602001600020600001541415610261576040517f08c379a00000000000000000000000000000000000000000000000000000000081526004016102589061318d565b60405180910390fd5b6000600360008481526020019081526020016000209050600115158160060160009054906101000a900460ff161515146102d0576040517f08c379a00000000000000000000000000000000000000000000000000000000081526004016102c79061310d565b60405180910390fd5b60008160050154905080341461031b576040517f08c379a0000000000000000000000000000000000000000000000000000000008152600401610312906131ad565b60405180910390fd5b60006103e8346103e361032e919061334e565b610338919061331d565b905060006103e834600561034c919061334e565b610356919061331d565b90508360040160009054906101000a900473ffffffffffffffffffffffffffffffffffffffff1673ffffffffffffffffffffffffffffffffffffffff166108fc839081150290604051600060405180830381858888f193505050501580156103c2573d6000803e3d6000fd5b508360030160009054906101000a900473ffffffffffffffffffffffffffffffffffffffff1673ffffffffffffffffffffffffffffffffffffffff166108fc829081150290604051600060405180830381858888f1935050505015801561042d573d6000803e3d6000fd5b506000846002015490508773ffffffffffffffffffffffffffffffffffffffff166323b872dd8660040160009054906101000a900473ffffffffffffffffffffffffffffffffffffffff1633846040518463ffffffff1660e01b815260040161049893929190613036565b600060405180830381600087803b1580156104b257600080fd5b505af11580156104c6573d6000803e3d6000fd5b50505050338560040160006101000a81548173ffffffffffffffffffffffffffffffffffffffff021916908373ffffffffffffffffffffffffffffffffffffffff16021790555060008560060160006101000a81548160ff021916908315150217905550600160009054906101000a900473ffffffffffffffffffffffffffffffffffffffff1673ffffffffffffffffffffffffffffffffffffffff166108fc6002549081150290604051600060405180830381858888f19350505050158015610594573d6000803e3d6000fd5b505050505050505050565b6060806060806060806060600080600190505b60005481101561067b573373ffffffffffffffffffffffffffffffffffffffff166003600083815260200190815260200160002060040160009054906101000a900473ffffffffffffffffffffffffffffffffffffffff1673ffffffffffffffffffffffffffffffffffffffff161480156106545750600015156003600083815260200190815260200160002060060160009054906101000a900460ff161515145b1561066857818061066490613438565b9250505b808061067390613438565b9150506105b2565b5060008167ffffffffffffffff8111156106be577f4e487b7100000000000000000000000000000000000000000000000000000000600052604160045260246000fd5b6040519080825280602002602001820160405280156106ec5781602001602082028036833780820191505090505b50905060008267ffffffffffffffff811115610731577f4e487b7100000000000000000000000000000000000000000000000000000000600052604160045260246000fd5b60405190808252806020026020018201604052801561075f5781602001602082028036833780820191505090505b50905060008367ffffffffffffffff8111156107a4577f4e487b7100000000000000000000000000000000000000000000000000000000600052604160045260246000fd5b6040519080825280602002602001820160405280156107d25781602001602082028036833780820191505090505b50905060008467ffffffffffffffff811115610817577f4e487b7100000000000000000000000000000000000000000000000000000000600052604160045260246000fd5b6040519080825280602002602001820160405280156108455781602001602082028036833780820191505090505b50905060008567ffffffffffffffff81111561088a577f4e487b7100000000000000000000000000000000000000000000000000000000600052604160045260246000fd5b6040519080825280602002602001820160405280156108b85781602001602082028036833780820191505090505b50905060008667ffffffffffffffff8111156108fd577f4e487b7100000000000000000000000000000000000000000000000000000000600052604160045260246000fd5b60405190808252806020026020018201604052801561092b5781602001602082028036833780820191505090505b50905060008767ffffffffffffffff811115610970577f4e487b7100000000000000000000000000000000000000000000000000000000600052604160045260246000fd5b60405190808252806020026020018201604052801561099e5781602001602082028036833780820191505090505b509050600080600190505b600054811015610e15576000600360008381526020019081526020016000206040518060e0016040529081600082015481526020016001820160009054906101000a900473ffffffffffffffffffffffffffffffffffffffff1673ffffffffffffffffffffffffffffffffffffffff1673ffffffffffffffffffffffffffffffffffffffff168152602001600282015481526020016003820160009054906101000a900473ffffffffffffffffffffffffffffffffffffffff1673ffffffffffffffffffffffffffffffffffffffff1673ffffffffffffffffffffffffffffffffffffffff1681526020016004820160009054906101000a900473ffffffffffffffffffffffffffffffffffffffff1673ffffffffffffffffffffffffffffffffffffffff1673ffffffffffffffffffffffffffffffffffffffff168152602001600582015481526020016006820160009054906101000a900460ff16151515158152505090503373ffffffffffffffffffffffffffffffffffffffff16816080015173ffffffffffffffffffffffffffffffffffffffff16148015610b575750600015158160c001511515145b15610e015780600001518a8481518110610b9a577f4e487b7100000000000000000000000000000000000000000000000000000000600052603260045260246000fd5b6020026020010181815250508060200151898481518110610be4577f4e487b7100000000000000000000000000000000000000000000000000000000600052603260045260246000fd5b602002602001019073ffffffffffffffffffffffffffffffffffffffff16908173ffffffffffffffffffffffffffffffffffffffff16815250508060400151888481518110610c5c577f4e487b7100000000000000000000000000000000000000000000000000000000600052603260045260246000fd5b6020026020010181815250508060600151878481518110610ca6577f4e487b7100000000000000000000000000000000000000000000000000000000600052603260045260246000fd5b602002602001019073ffffffffffffffffffffffffffffffffffffffff16908173ffffffffffffffffffffffffffffffffffffffff16815250508060800151868481518110610d1e577f4e487b7100000000000000000000000000000000000000000000000000000000600052603260045260246000fd5b602002602001019073ffffffffffffffffffffffffffffffffffffffff16908173ffffffffffffffffffffffffffffffffffffffff16815250508060a00151858481518110610d96577f4e487b7100000000000000000000000000000000000000000000000000000000600052603260045260246000fd5b6020026020010181815250508060c00151848481518110610de0577f4e487b7100000000000000000000000000000000000000000000000000000000600052603260045260246000fd5b6020026020010190151590811515815250508280610dfd90613438565b9350505b508080610e0d90613438565b9150506109a9565b50878787878787879f509f509f509f509f509f509f5050505050505050505090919293949596565b6060806060806060806060600080600190505b600054811015610eac57600115156003600083815260200190815260200160002060060160009054906101000a900460ff1615151415610e99578180610e9590613438565b9250505b8080610ea490613438565b915050610e50565b5060008167ffffffffffffffff811115610eef577f4e487b7100000000000000000000000000000000000000000000000000000000600052604160045260246000fd5b604051908082528060200260200182016040528015610f1d5781602001602082028036833780820191505090505b50905060008267ffffffffffffffff811115610f62577f4e487b7100000000000000000000000000000000000000000000000000000000600052604160045260246000fd5b604051908082528060200260200182016040528015610f905781602001602082028036833780820191505090505b50905060008367ffffffffffffffff811115610fd5577f4e487b7100000000000000000000000000000000000000000000000000000000600052604160045260246000fd5b6040519080825280602002602001820160405280156110035781602001602082028036833780820191505090505b50905060008467ffffffffffffffff811115611048577f4e487b7100000000000000000000000000000000000000000000000000000000600052604160045260246000fd5b6040519080825280602002602001820160405280156110765781602001602082028036833780820191505090505b50905060008567ffffffffffffffff8111156110bb577f4e487b7100000000000000000000000000000000000000000000000000000000600052604160045260246000fd5b6040519080825280602002602001820160405280156110e95781602001602082028036833780820191505090505b50905060008667ffffffffffffffff81111561112e577f4e487b7100000000000000000000000000000000000000000000000000000000600052604160045260246000fd5b60405190808252806020026020018201604052801561115c5781602001602082028036833780820191505090505b50905060008767ffffffffffffffff8111156111a1577f4e487b7100000000000000000000000000000000000000000000000000000000600052604160045260246000fd5b6040519080825280602002602001820160405280156111cf5781602001602082028036833780820191505090505b5090506000805b600054811015611607576000600360008381526020019081526020016000206040518060e0016040529081600082015481526020016001820160009054906101000a900473ffffffffffffffffffffffffffffffffffffffff1673ffffffffffffffffffffffffffffffffffffffff1673ffffffffffffffffffffffffffffffffffffffff168152602001600282015481526020016003820160009054906101000a900473ffffffffffffffffffffffffffffffffffffffff1673ffffffffffffffffffffffffffffffffffffffff1673ffffffffffffffffffffffffffffffffffffffff1681526020016004820160009054906101000a900473ffffffffffffffffffffffffffffffffffffffff1673ffffffffffffffffffffffffffffffffffffffff1673ffffffffffffffffffffffffffffffffffffffff168152602001600582015481526020016006820160009054906101000a900460ff1615151515815250509050600115158160c00151151514156115f35780600001518a848151811061138c577f4e487b7100000000000000000000000000000000000000000000000000000000600052603260045260246000fd5b60200260200101818152505080602001518984815181106113d6577f4e487b7100000000000000000000000000000000000000000000000000000000600052603260045260246000fd5b602002602001019073ffffffffffffffffffffffffffffffffffffffff16908173ffffffffffffffffffffffffffffffffffffffff1681525050806040015188848151811061144e577f4e487b7100000000000000000000000000000000000000000000000000000000600052603260045260246000fd5b6020026020010181815250508060600151878481518110611498577f4e487b7100000000000000000000000000000000000000000000000000000000600052603260045260246000fd5b602002602001019073ffffffffffffffffffffffffffffffffffffffff16908173ffffffffffffffffffffffffffffffffffffffff16815250508060800151868481518110611510577f4e487b7100000000000000000000000000000000000000000000000000000000600052603260045260246000fd5b602002602001019073ffffffffffffffffffffffffffffffffffffffff16908173ffffffffffffffffffffffffffffffffffffffff16815250508060a00151858481518110611588577f4e487b7100000000000000000000000000000000000000000000000000000000600052603260045260246000fd5b6020026020010181815250508060c001518484815181106115d2577f4e487b7100000000000000000000000000000000000000000000000000000000600052603260045260246000fd5b60200260200101901515908115158152505082806115ef90613438565b9350505b5080806115ff90613438565b9150506111d6565b50878787878787879f509f509f509f509f509f509f5050505050505050505090919293949596565b60005481565b81813373ffffffffffffffffffffffffffffffffffffffff168273ffffffffffffffffffffffffffffffffffffffff16636352211e836040518263ffffffff1660e01b8152600401611687919061320d565b60206040518083038186803b15801561169f57600080fd5b505afa1580156116b3573d6000803e3d6000fd5b505050506040513d601f19601f820116820180604052508101906116d79190612c3c565b73ffffffffffffffffffffffffffffffffffffffff161461172d576040517f08c379a00000000000000000000000000000000000000000000000000000000081526004016117249061316d565b60405180910390fd5b6002543414611771576040517f08c379a00000000000000000000000000000000000000000000000000000000081526004016117689061314d565b60405180910390fd5b6040518060e0016040528060005481526020018573ffffffffffffffffffffffffffffffffffffffff1681526020018481526020013373ffffffffffffffffffffffffffffffffffffffff1681526020013373ffffffffffffffffffffffffffffffffffffffff168152602001600081526020016000151581525060036000805481526020019081526020016000206000820151816000015560208201518160010160006101000a81548173ffffffffffffffffffffffffffffffffffffffff021916908373ffffffffffffffffffffffffffffffffffffffff1602179055506040820151816002015560608201518160030160006101000a81548173ffffffffffffffffffffffffffffffffffffffff021916908373ffffffffffffffffffffffffffffffffffffffff16021790555060808201518160040160006101000a81548173ffffffffffffffffffffffffffffffffffffffff021916908373ffffffffffffffffffffffffffffffffffffffff16021790555060a0820151816005015560c08201518160060160006101000a81548160ff02191690831515021790555090505060008081548092919061192890613438565b919050555050505050565b8160006003600083815260200190815260200160002060000154141561198e576040517f08c379a00000000000000000000000000000000000000000000000000000000081526004016119859061318d565b60405180910390fd5b60006003600085815260200190815260200160002090503373ffffffffffffffffffffffffffffffffffffffff168160040160009054906101000a900473ffffffffffffffffffffffffffffffffffffffff1673ffffffffffffffffffffffffffffffffffffffff1614611a37576040517f08c379a0000000000000000000000000000000000000000000000000000000008152600401611a2e9061312d565b60405180910390fd5b600015158160060160009054906101000a900460ff16151514611a8f576040517f08c379a0000000000000000000000000000000000000000000000000000000008152600401611a86906131cd565b60405180910390fd5b60008311611ad2576040517f08c379a0000000000000000000000000000000000000000000000000000000008152600401611ac9906131ed565b60405180910390fd5b82816005018190555060018160060160006101000a81548160ff02191690831515021790555050505050565b6060806060806060806060600080600190505b600054811015611ba7573373ffffffffffffffffffffffffffffffffffffffff166003600083815260200190815260200160002060030160009054906101000a900473ffffffffffffffffffffffffffffffffffffffff1673ffffffffffffffffffffffffffffffffffffffff161415611b94578180611b9090613438565b9250505b8080611b9f90613438565b915050611b11565b5060008167ffffffffffffffff811115611bea577f4e487b7100000000000000000000000000000000000000000000000000000000600052604160045260246000fd5b604051908082528060200260200182016040528015611c185781602001602082028036833780820191505090505b50905060008267ffffffffffffffff811115611c5d577f4e487b7100000000000000000000000000000000000000000000000000000000600052604160045260246000fd5b604051908082528060200260200182016040528015611c8b5781602001602082028036833780820191505090505b50905060008367ffffffffffffffff811115611cd0577f4e487b7100000000000000000000000000000000000000000000000000000000600052604160045260246000fd5b604051908082528060200260200182016040528015611cfe5781602001602082028036833780820191505090505b50905060008467ffffffffffffffff811115611d43577f4e487b7100000000000000000000000000000000000000000000000000000000600052604160045260246000fd5b604051908082528060200260200182016040528015611d715781602001602082028036833780820191505090505b50905060008567ffffffffffffffff811115611db6577f4e487b7100000000000000000000000000000000000000000000000000000000600052604160045260246000fd5b604051908082528060200260200182016040528015611de45781602001602082028036833780820191505090505b50905060008667ffffffffffffffff811115611e29577f4e487b7100000000000000000000000000000000000000000000000000000000600052604160045260246000fd5b604051908082528060200260200182016040528015611e575781602001602082028036833780820191505090505b50905060008767ffffffffffffffff811115611e9c577f4e487b7100000000000000000000000000000000000000000000000000000000600052604160045260246000fd5b604051908082528060200260200182016040528015611eca5781602001602082028036833780820191505090505b509050600080600190505b60005481101561232d576000600360008381526020019081526020016000206040518060e0016040529081600082015481526020016001820160009054906101000a900473ffffffffffffffffffffffffffffffffffffffff1673ffffffffffffffffffffffffffffffffffffffff1673ffffffffffffffffffffffffffffffffffffffff168152602001600282015481526020016003820160009054906101000a900473ffffffffffffffffffffffffffffffffffffffff1673ffffffffffffffffffffffffffffffffffffffff1673ffffffffffffffffffffffffffffffffffffffff1681526020016004820160009054906101000a900473ffffffffffffffffffffffffffffffffffffffff1673ffffffffffffffffffffffffffffffffffffffff1673ffffffffffffffffffffffffffffffffffffffff168152602001600582015481526020016006820160009054906101000a900460ff16151515158152505090503373ffffffffffffffffffffffffffffffffffffffff16816060015173ffffffffffffffffffffffffffffffffffffffff1614156123195780600001518a84815181106120b2577f4e487b7100000000000000000000000000000000000000000000000000000000600052603260045260246000fd5b60200260200101818152505080602001518984815181106120fc577f4e487b7100000000000000000000000000000000000000000000000000000000600052603260045260246000fd5b602002602001019073ffffffffffffffffffffffffffffffffffffffff16908173ffffffffffffffffffffffffffffffffffffffff16815250508060400151888481518110612174577f4e487b7100000000000000000000000000000000000000000000000000000000600052603260045260246000fd5b60200260200101818152505080606001518784815181106121be577f4e487b7100000000000000000000000000000000000000000000000000000000600052603260045260246000fd5b602002602001019073ffffffffffffffffffffffffffffffffffffffff16908173ffffffffffffffffffffffffffffffffffffffff16815250508060800151868481518110612236577f4e487b7100000000000000000000000000000000000000000000000000000000600052603260045260246000fd5b602002602001019073ffffffffffffffffffffffffffffffffffffffff16908173ffffffffffffffffffffffffffffffffffffffff16815250508060a001518584815181106122ae577f4e487b7100000000000000000000000000000000000000000000000000000000600052603260045260246000fd5b6020026020010181815250508060c001518484815181106122f8577f4e487b7100000000000000000000000000000000000000000000000000000000600052603260045260246000fd5b602002602001019015159081151581525050828061231590613438565b9350505b50808061232590613438565b915050611ed5565b50878787878787879f509f509f509f509f509f509f5050505050505050505090919293949596565b6060806060806060806060600080600190505b600054811015612431573373ffffffffffffffffffffffffffffffffffffffff166003600083815260200190815260200160002060040160009054906101000a900473ffffffffffffffffffffffffffffffffffffffff1673ffffffffffffffffffffffffffffffffffffffff1614801561240a5750600115156003600083815260200190815260200160002060060160009054906101000a900460ff161515145b1561241e57818061241a90613438565b9250505b808061242990613438565b915050612368565b5060008167ffffffffffffffff811115612474577f4e487b7100000000000000000000000000000000000000000000000000000000600052604160045260246000fd5b6040519080825280602002602001820160405280156124a25781602001602082028036833780820191505090505b50905060008267ffffffffffffffff8111156124e7577f4e487b7100000000000000000000000000000000000000000000000000000000600052604160045260246000fd5b6040519080825280602002602001820160405280156125155781602001602082028036833780820191505090505b50905060008367ffffffffffffffff81111561255a577f4e487b7100000000000000000000000000000000000000000000000000000000600052604160045260246000fd5b6040519080825280602002602001820160405280156125885781602001602082028036833780820191505090505b50905060008467ffffffffffffffff8111156125cd577f4e487b7100000000000000000000000000000000000000000000000000000000600052604160045260246000fd5b6040519080825280602002602001820160405280156125fb5781602001602082028036833780820191505090505b50905060008567ffffffffffffffff811115612640577f4e487b7100000000000000000000000000000000000000000000000000000000600052604160045260246000fd5b60405190808252806020026020018201604052801561266e5781602001602082028036833780820191505090505b50905060008667ffffffffffffffff8111156126b3577f4e487b7100000000000000000000000000000000000000000000000000000000600052604160045260246000fd5b6040519080825280602002602001820160405280156126e15781602001602082028036833780820191505090505b50905060008767ffffffffffffffff811115612726577f4e487b7100000000000000000000000000000000000000000000000000000000600052604160045260246000fd5b6040519080825280602002602001820160405280156127545781602001602082028036833780820191505090505b509050600080600190505b600054811015612bcb576000600360008381526020019081526020016000206040518060e0016040529081600082015481526020016001820160009054906101000a900473ffffffffffffffffffffffffffffffffffffffff1673ffffffffffffffffffffffffffffffffffffffff1673ffffffffffffffffffffffffffffffffffffffff168152602001600282015481526020016003820160009054906101000a900473ffffffffffffffffffffffffffffffffffffffff1673ffffffffffffffffffffffffffffffffffffffff1673ffffffffffffffffffffffffffffffffffffffff1681526020016004820160009054906101000a900473ffffffffffffffffffffffffffffffffffffffff1673ffffffffffffffffffffffffffffffffffffffff1673ffffffffffffffffffffffffffffffffffffffff168152602001600582015481526020016006820160009054906101000a900460ff16151515158152505090503373ffffffffffffffffffffffffffffffffffffffff16816080015173ffffffffffffffffffffffffffffffffffffffff1614801561290d5750600115158160c001511515145b15612bb75780600001518a8481518110612950577f4e487b7100000000000000000000000000000000000000000000000000000000600052603260045260246000fd5b602002602001018181525050806020015189848151811061299a577f4e487b7100000000000000000000000000000000000000000000000000000000600052603260045260246000fd5b602002602001019073ffffffffffffffffffffffffffffffffffffffff16908173ffffffffffffffffffffffffffffffffffffffff16815250508060400151888481518110612a12577f4e487b7100000000000000000000000000000000000000000000000000000000600052603260045260246000fd5b6020026020010181815250508060600151878481518110612a5c577f4e487b7100000000000000000000000000000000000000000000000000000000600052603260045260246000fd5b602002602001019073ffffffffffffffffffffffffffffffffffffffff16908173ffffffffffffffffffffffffffffffffffffffff16815250508060800151868481518110612ad4577f4e487b7100000000000000000000000000000000000000000000000000000000600052603260045260246000fd5b602002602001019073ffffffffffffffffffffffffffffffffffffffff16908173ffffffffffffffffffffffffffffffffffffffff16815250508060a00151858481518110612b4c577f4e487b7100000000000000000000000000000000000000000000000000000000600052603260045260246000fd5b6020026020010181815250508060c00151848481518110612b96577f4e487b7100000000000000000000000000000000000000000000000000000000600052603260045260246000fd5b6020026020010190151590811515815250508280612bb390613438565b9350505b508080612bc390613438565b91505061275f565b50878787878787879f509f509f509f509f509f509f5050505050505050505090919293949596565b6000600254905090565b600081359050612c0c8161364d565b92915050565b600081519050612c218161364d565b92915050565b600081359050612c3681613664565b92915050565b600060208284031215612c4e57600080fd5b6000612c5c84828501612c12565b91505092915050565b60008060408385031215612c7857600080fd5b6000612c8685828601612bfd565b9250506020612c9785828601612c27565b9150509250929050565b60008060408385031215612cb457600080fd5b6000612cc285828601612c27565b9250506020612cd385828601612c27565b9150509250929050565b6000612ce98383612d4c565b60208301905092915050565b6000612d018383612d5b565b60208301905092915050565b6000612d198383612ef1565b60208301905092915050565b6000612d318383613018565b60208301905092915050565b612d4681613402565b82525050565b612d55816133ba565b82525050565b612d64816133a8565b82525050565b612d73816133a8565b82525050565b6000612d8482613268565b612d8e81856132c8565b9350612d9983613228565b8060005b83811015612dca578151612db18882612cf5565b9750612dbc83613294565b925050600181019050612d9d565b5085935050505092915050565b6000612de282613273565b612dec81856132d9565b9350612df783613238565b8060005b83811015612e28578151612e0f8882612cdd565b9750612e1a836132a1565b925050600181019050612dfb565b5085935050505092915050565b6000612e408261327e565b612e4a81856132ea565b9350612e5583613248565b8060005b83811015612e86578151612e6d8882612d0d565b9750612e78836132ae565b925050600181019050612e59565b5085935050505092915050565b6000612e9e82613289565b612ea881856132fb565b9350612eb383613258565b8060005b83811015612ee4578151612ecb8882612d25565b9750612ed6836132bb565b925050600181019050612eb7565b5085935050505092915050565b612efa816133cc565b82525050565b6000612f0d60208361330c565b9150612f18826134df565b602082019050919050565b6000612f3060188361330c565b9150612f3b82613508565b602082019050919050565b6000612f5360298361330c565b9150612f5e82613531565b604082019050919050565b6000612f76601b8361330c565b9150612f8182613580565b602082019050919050565b6000612f9960128361330c565b9150612fa4826135a9565b602082019050919050565b6000612fbc60158361330c565b9150612fc7826135d2565b602082019050919050565b6000612fdf60138361330c565b9150612fea826135fb565b602082019050919050565b6000613002601c8361330c565b915061300d82613624565b602082019050919050565b613021816133f8565b82525050565b613030816133f8565b82525050565b600060608201905061304b6000830186612d3d565b6130586020830185612d6a565b6130656040830184613027565b949350505050565b600060e0820190508181036000830152613087818a612e93565b9050818103602083015261309b8189612d79565b905081810360408301526130af8188612e93565b905081810360608301526130c38187612dd7565b905081810360808301526130d78186612dd7565b905081810360a08301526130eb8185612e93565b905081810360c08301526130ff8184612e35565b905098975050505050505050565b6000602082019050818103600083015261312681612f00565b9050919050565b6000602082019050818103600083015261314681612f23565b9050919050565b6000602082019050818103600083015261316681612f46565b9050919050565b6000602082019050818103600083015261318681612f69565b9050919050565b600060208201905081810360008301526131a681612f8c565b9050919050565b600060208201905081810360008301526131c681612faf565b9050919050565b600060208201905081810360008301526131e681612fd2565b9050919050565b6000602082019050818103600083015261320681612ff5565b9050919050565b60006020820190506132226000830184613027565b92915050565b6000819050602082019050919050565b6000819050602082019050919050565b6000819050602082019050919050565b6000819050602082019050919050565b600081519050919050565b600081519050919050565b600081519050919050565b600081519050919050565b6000602082019050919050565b6000602082019050919050565b6000602082019050919050565b6000602082019050919050565b600082825260208201905092915050565b600082825260208201905092915050565b600082825260208201905092915050565b600082825260208201905092915050565b600082825260208201905092915050565b6000613328826133f8565b9150613333836133f8565b925082613343576133426134b0565b5b828204905092915050565b6000613359826133f8565b9150613364836133f8565b9250817fffffffffffffffffffffffffffffffffffffffffffffffffffffffffffffffff048311821515161561339d5761339c613481565b5b828202905092915050565b60006133b3826133d8565b9050919050565b60006133c5826133d8565b9050919050565b60008115159050919050565b600073ffffffffffffffffffffffffffffffffffffffff82169050919050565b6000819050919050565b600061340d82613414565b9050919050565b600061341f82613426565b9050919050565b6000613431826133d8565b9050919050565b6000613443826133f8565b91507fffffffffffffffffffffffffffffffffffffffffffffffffffffffffffffffff82141561347657613475613481565b5b600182019050919050565b7f4e487b7100000000000000000000000000000000000000000000000000000000600052601160045260246000fd5b7f4e487b7100000000000000000000000000000000000000000000000000000000600052601260045260246000fd5b7f4974656d206973206e6f74206c6973746564206f6e20746865206d61726b6574600082015250565b7f4f6e6c79206974656d206f776e65722063616e206c6973740000000000000000600082015250565b7f5468652073656e74207072696365206d75737420626520657175616c20746f2060008201527f636f6d6d6973696f6e0000000000000000000000000000000000000000000000602082015250565b7f43616e206f6e6c792061646420796f7572206f776e20746f6b656e0000000000600082015250565b7f4e6f2073756368206974656d2065786973740000000000000000000000000000600082015250565b7f4e6f7420656e6f7567682076616c75652073656e740000000000000000000000600082015250565b7f4974656d20616c7265616479206c697374656400000000000000000000000000600082015250565b7f5072696365206d7573742062652067726561746572207468616e203000000000600082015250565b613656816133a8565b811461366157600080fd5b50565b61366d816133f8565b811461367857600080fd5b5056fea264697066735822122045807f9937ab40e2215b7e59a28351555c9464ce82212e9bcf0087e5253c15a064736f6c63430008040033",
  "immutableReferences": {},
  "source": "// SPDX-License-Identifier: MIT\npragma solidity >=0.8.0;\npragma experimental ABIEncoderV2;\n\nimport \"@openzeppelin/contracts/token/ERC721/ERC721.sol\";\n\ncontract Marketplace {\n  \n    struct NFT_Item {\n        uint256 itemId;\n        address itemContract;\n        uint256 tokenId;\n        address payable minter;\n        address payable owner;\n        uint256 price;\n        bool listed;\n    }\n\n  \n    uint256 public itemID;\n    address payable private owner;\n    uint256 private commission;\n\n   \n    mapping(uint256 => NFT_Item) private idToItem;\n\n  \n    constructor() {\n        owner = payable(msg.sender);\n        commission = 0.5 ether;\n        itemID = 1;\n    }\n\n   \n    function getCommission() public view returns (uint256) {\n        return commission;\n    }\n\n\n    function createItem(address itemContract, uint256 tokenId)\n        public\n        payable\n        TokenOwnerOnly(itemContract, tokenId)\n    {\n        require(\n            msg.value == commission,\n            \"The sent price must be equal to commision\"\n        );\n\n        idToItem[itemID] = NFT_Item(\n            itemID,\n            itemContract,\n            tokenId,\n            payable(msg.sender),\n            payable(msg.sender),\n            0,\n            false\n        );\n        itemID++;\n    }\n\n    function listItem(uint256 _itemId, uint256 price)\n        public\n        ItemExist(_itemId)\n    {\n        NFT_Item storage item = idToItem[_itemId];\n        require(item.owner == msg.sender, \"Only item owner can list\");\n        require(item.listed == false, \"Item already listed\");\n        require(price > 0, \"Price must be greater than 0\");\n\n        item.price = price;\n        item.listed = true;\n    }\n\n    /*\n        - this function is used to sell listed items on the marketplace\n        - first check : if Item with given _itemId exist or not\n        - second check : whether the item is listed on the marketplace or not\n        - third check : if the buyer has sent enough money\n        - if all conditions are true then transfer 99.5% amount to the owner of the item and 0.5% to the minter of the item\n        - transfer the nft from the previous owner to the new onwer\n        - change the owner and listing status of the item\n     */\n    function sellItem(address itemContract, uint256 _itemId)\n        public\n        payable\n        ItemExist(_itemId)\n    {\n        NFT_Item storage item = idToItem[_itemId];\n\n        require(item.listed == true, \"Item is not listed on the market\");\n\n        uint256 price = item.price;\n        require(msg.value == price, \"Not enough value sent\");\n\n        uint256 ownerAmt = (995 * msg.value) / 1000;\n        uint256 minterAmt = (5 * msg.value) / 1000;\n\n        item.owner.transfer(ownerAmt);\n        item.minter.transfer(minterAmt);\n\n        uint256 tokenId = item.tokenId;\n\n        ERC721(itemContract).transferFrom(item.owner, msg.sender, tokenId);\n\n        item.owner = payable(msg.sender);\n        item.listed = false;\n\n        owner.transfer(commission);\n    }\n\n    /*\n        - this function is used to get the items that are listed for sale in the marketplace\n        - first find the number of such items\n        - then create an array of type NFT_Item of the given size\n        - iterater over all the items and add them to the array if their listing status is true\n        - return the struct array\n    */\n    function getMarketItems()\n        public\n        view\n        returns (\n            uint256[] memory,\n            address[] memory,\n            uint256[] memory,\n            address payable[] memory,\n            address payable[] memory,\n            uint256[] memory,\n            bool[] memory\n        )\n    {\n        uint256 availiable = 0;\n        for (uint256 i = 1; i < itemID; i++) {\n            if (idToItem[i].listed == true) {\n                availiable++;\n            }\n        }\n\n        uint256[] memory itemId = new uint256[](availiable);\n        address[] memory itemContract = new address[](availiable);\n        uint256[] memory tokenId = new uint256[](availiable);\n        address payable[] memory minters = new address payable[](availiable);\n        address payable[] memory owners = new address payable[](availiable);\n        uint256[] memory price = new uint256[](availiable);\n        bool[] memory listed = new bool[](availiable);\n        uint256 curr = 0;\n        for (uint256 i = 0; i < itemID; i++) {\n            NFT_Item memory item = idToItem[i];\n            if (item.listed == true) {\n                itemId[curr] = item.itemId;\n                itemContract[curr] = item.itemContract;\n                tokenId[curr] = item.tokenId;\n                minters[curr] = item.minter;\n                owners[curr] = item.owner;\n                price[curr] = item.price;\n                listed[curr] = item.listed;\n                curr++;\n            }\n        }\n        return (itemId, itemContract, tokenId, minters, owners, price, listed);\n    }\n\n    /*\n        - this function returns all the items bought by the current user that are not listed\n        - iterater over all the NFT_Items and count the number of items which the user is the owner of but not the minter\n        - then create an array of type NFT_Item of the given size\n        - iterater over all the items and add them to the array if given condition is true\n        - return the struct array\n     */\n    function getBoughtItems()\n        public\n        view\n        returns (\n            uint256[] memory,\n            address[] memory,\n            uint256[] memory,\n            address payable[] memory,\n            address payable[] memory,\n            uint256[] memory,\n            bool[] memory\n        )\n    {\n        uint256 count = 0;\n        for (uint256 i = 1; i < itemID; i++) {\n            if (idToItem[i].owner == msg.sender && idToItem[i].listed == false) {\n                count++;\n            }\n        }\n        uint256[] memory itemId = new uint256[](count);\n        address[] memory itemContract = new address[](count);\n        uint256[] memory tokenId = new uint256[](count);\n        address payable[] memory minters = new address payable[](count);\n        address payable[] memory owners = new address payable[](count);\n        uint256[] memory price = new uint256[](count);\n        bool[] memory listed = new bool[](count);\n\n        uint256 curr = 0;\n        for (uint256 i = 1; i < itemID; i++) {\n            NFT_Item memory item = idToItem[i];\n            if ((item.owner == msg.sender && item.listed == false)) {\n                itemId[curr] = item.itemId;\n                itemContract[curr] = item.itemContract;\n                tokenId[curr] = item.tokenId;\n                minters[curr] = item.minter;\n                owners[curr] = item.owner;\n                price[curr] = item.price;\n                listed[curr] = item.listed;\n                curr++;\n            }\n        }\n        return (itemId, itemContract, tokenId, minters, owners, price, listed);\n    }\n\n    /*\n        - this function returns all the items bought by the current user which are listed\n        - iterater over all the NFT_Items and count the number of items which the user is the owner of but not the minter\n        - then create an array of type NFT_Item of the given size\n        - iterater over all the items and add them to the array if given condition is true\n        - return the struct array\n     */\n    function getListedItems()\n        public\n        view\n        returns (\n            uint256[] memory,\n            address[] memory,\n            uint256[] memory,\n            address payable[] memory,\n            address payable[] memory,\n            uint256[] memory,\n            bool[] memory\n        )\n    {\n        uint256 count = 0;\n        for (uint256 i = 1; i < itemID; i++) {\n            if (idToItem[i].owner == msg.sender && idToItem[i].listed == true) {\n                count++;\n            }\n        }\n        uint256[] memory itemId = new uint256[](count);\n        address[] memory itemContract = new address[](count);\n        uint256[] memory tokenId = new uint256[](count);\n        address payable[] memory minters = new address payable[](count);\n        address payable[] memory owners = new address payable[](count);\n        uint256[] memory price = new uint256[](count);\n        bool[] memory listed = new bool[](count);\n\n        uint256 curr = 0;\n        for (uint256 i = 1; i < itemID; i++) {\n            NFT_Item memory item = idToItem[i];\n            if ((item.owner == msg.sender && item.listed == true)) {\n                itemId[curr] = item.itemId;\n                itemContract[curr] = item.itemContract;\n                tokenId[curr] = item.tokenId;\n                minters[curr] = item.minter;\n                owners[curr] = item.owner;\n                price[curr] = item.price;\n                listed[curr] = item.listed;\n                curr++;\n            }\n        }\n        return (itemId, itemContract, tokenId, minters, owners, price, listed);\n    }\n\n    /*\n        - this function returns all the items that are created by the current user\n        - iterater over all the NFT_Items and count the number of items which the user is the minter\n        - then create an array of type NFT_Item of the given size\n        - iterater over all the items and add them to the array if given condition is true\n        - return the struct array\n    */\n    function getCreatedItems()\n        public\n        view\n        returns (\n            uint256[] memory,\n            address[] memory,\n            uint256[] memory,\n            address payable[] memory,\n            address payable[] memory,\n            uint256[] memory,\n            bool[] memory\n        )\n    {\n        uint256 count = 0;\n        for (uint256 i = 1; i < itemID; i++) {\n            if (idToItem[i].minter == msg.sender) {\n                count++;\n            }\n        }\n        uint256[] memory itemId = new uint256[](count);\n        address[] memory itemContract = new address[](count);\n        uint256[] memory tokenId = new uint256[](count);\n        address payable[] memory minters = new address payable[](count);\n        address payable[] memory owners = new address payable[](count);\n        uint256[] memory price = new uint256[](count);\n        bool[] memory listed = new bool[](count);\n\n        uint256 curr = 0;\n        for (uint256 i = 1; i < itemID; i++) {\n            NFT_Item memory item = idToItem[i];\n            if (item.minter == msg.sender) {\n                itemId[curr] = item.itemId;\n                itemContract[curr] = item.itemContract;\n                tokenId[curr] = item.tokenId;\n                minters[curr] = item.minter;\n                owners[curr] = item.owner;\n                price[curr] = item.price;\n                listed[curr] = item.listed;\n                curr++;\n            }\n        }\n        return (itemId, itemContract, tokenId, minters, owners, price, listed);\n    }\n\n    /*\n        Modifiers\n     */\n    modifier ItemExist(uint256 _itemId) {\n        require(idToItem[_itemId].itemId != 0, \"No such item exist\");\n        _;\n    }\n\n    modifier TokenOwnerOnly(address itemContract, uint256 tokenId) {\n        require(\n            ERC721(itemContract).ownerOf(tokenId) == msg.sender,\n            \"Can only add your own token\"\n        );\n        _;\n    }\n}\n",
  "sourcePath": "I:\\NFTswiss\\contracts\\Marketplace.sol",
  "compiler": {
    "name": "solc",
    "version": "0.8.4+commit.c7e474f2.Emscripten.clang"
  },
  "schemaVersion": "3.4.4",
  "updatedAt": "2022-03-23T17:24:00.224Z",
  "networkType": "ethereum",
  "devdoc": {
    "kind": "dev",
    "methods": {},
    "version": 1
  },
  "userdoc": {
    "kind": "user",
    "methods": {},
    "version": 1
  }
}